:100000001BC100004AC1000048C1000046C10000F9
:1000100044C1000042C1000040C100003EC10000D8
:100020003CC100003AC1000038C1000036C10000E8
:1000300034C1000032C1000030C100002EC10000F8
:100040002CC100002AC1000028C1000026C1000008
:1000500024C1000022C1000020C100000C947410D3
:100060001CC100000C94550F0C948B0F16C100009E
:1000700014C1000012C1000010C100000EC1000038
:100080000CC100000AC1000008C1000006C1000048
:1000900004C1000002C1000000C10000FEC0000059
:1000A000FCC00000FAC00000F8C00000F6C000006C
:1000B000F4C00000F2C00000F0C00000EEC000007C
:1000C000ECC00000EAC0000085C70000E6C00000E8
:1000D000E4C00000E2C00000E0C00000DEC000009C
:1000E000DCC0000097119C11A111AB11B5112E12AB
:1000F000BF11C711CF11D911E311ED11FC11061277
:100100002E1210121A1224124F12521241124512BC
:100110004B12891256125A126012641268126E1231
:100120007212761289127C128012841200000A0B5D
:1001300002090C0D0E080703040100000000000076
:1001400000000000000000000000000000000000AF
:10015000000000000000000012111000000000006C
:10016000000000000000000000000000000000008F
:1001700000000102102020080810204010204080BC
:10018000020102010804020101020408102040805B
:1001900080402010080402018004020180402010E9
:1001A0000804020108040201010204081020408032
:1001B0000102040810204080050505050705080810
:1001C0000808020202020A0A0808040404040101E1
:1001D00001010101010103030303030303030407F6
:1001E00007070C0C0C0C0C0C0C0C0202020206068D
:1001F0000606060606060B0B0B0B0B0B0B0B000083
:100200002200250028002B002E00310034000201BE
:100210000000050108010B01000021002400270057
:100220002A002D0030003300010100000401070105
:100230000A01D00DBD0FE30D11241FBECFEFD1E297
:10024000DEBFCDBF00E00CBF14E0A0E0B2E0ECEAFE
:10025000F1E300E00BBF02C007900D92A63BB1078F
:10026000D9F72AE0A6EBB4E001C01D92A531B20790
:10027000E1F712E0C6E3D2E000E006C022970109F0
:10028000FE010BBF0E94BE13C233D10780E00807F6
:10029000A9F70E9468100C94C518B2CEFC01DB01CE
:1002A00082818C93838111968C931197848112960D
:1002B0008C931297858113968C931397868114964D
:1002C0008C931497878115968C9315978085169635
:1002D0008C931697818517968C9388E090E008950B
:1002E000FC01DB014C9150E060E070E042835383FD
:1002F0006483758311968C911197582B4283538395
:100300006483758312968C911297682B4283538372
:100310006483758313968C911397782B4283538350
:100320006483758314964C91149750E060E070E0FC
:10033000468357836087718715968C911597582B44
:10034000468357836087718716968C911697682B22
:10035000468357836087718717968C91782B4683E5
:1003600057836087718788E090E0089580E192E08C
:1003700008958EE192E008956F927F928F929F92FE
:10038000AF92BF92CF92DF92EF92FF920F931F93A3
:10039000CF93DF93FC01DB018C9190E09383828308
:1003A00011962C911197922B9383828312964D91E3
:1003B0005D916D917C9115975D0186E0A80EB11C51
:1003C0008A019B010A5F1F4F2F4F3F4F6501CA1AD9
:1003D000DB0AE12CF12CC016D106E206F30640F44C
:1003E000E501F9905E01CE010297EC01F882EECFB3
:1003F000ED01C40FD51F1D82CD0105969583848321
:10040000ED01C40FD51FCE80DF80E884F984465FFC
:100410005F4F3D01640E751E8A01222717FD20954E
:10042000322F0C0D1D1D2E1D3F1D43018A1A9B0AE4
:10043000A12CB12C80169106A206B30640F4E3016C
:1004400069913E01CE010297EC016883EECFC40EA4
:10045000D51E9D012C0D3D1DC9010197EC0118828F
:10046000415051094A0F5B1F57834683E9010881B8
:1004700019812A813B81D4E0CD0ED11C3D016C0C49
:100480007D1CA601662757FD6095762F400F511FF2
:10049000621F731F43018A1A9B0AA12CB12C841678
:1004A0009506A606B70640F4E301F9903E01CE0199
:1004B0000297EC01F882EECF0C0D1D1D9D01200F5F
:1004C000311FC9010197EC011882D1E0CD1AD10882
:1004D000CA0EDB1ED186C086D90111968C91119768
:1004E00012964C91129750E060E070E0BA015527E7
:1004F0004427582B8C91482B13968C91782B42874C
:10050000538764877587C8010496DF91CF911F9147
:100510000F91FF90EF90DF90CF90BF90AF909F90A2
:100520008F907F906F9008958FE392E0089588E513
:1005300092E00895AF92BF92CF92DF92EF92FF9236
:100540001F93CF93DF939C01FB018081D901129609
:100550008C9381819281A381B4815B01C5E0AC0E53
:10056000B11CAC01BD014B5F5F4F6F4F7F4F650109
:10057000CE1ADF0AE12CF12CC416D506E606F706E2
:1005800050F4E501D9905E017E01D2E0ED1AF10848
:10059000E701D882ECCFEF01C80FD91F1C82349637
:1005A000E901FC83EB830596DF91CF911F91FF90CA
:1005B000EF90DF90CF90BF90AF90089589E792E0E1
:1005C00008958CE892E0089583E494E008958DEA1C
:1005D00092E00895AF92BF92CF92DF92EF92FF9296
:1005E0001F93CF93DF935C019B01FB01819191915C
:1005F000A191B191AC01BD014C5F5F4F6F4F7F4F37
:100600006F01C21AD30AE12CF12CC416D506E606F6
:10061000F70640F4D1907F0112E0E11AF108E701FA
:10062000D882EECFF901E80FF91F13822D5F3F4FFB
:10063000F501338322830496DF91CF911F91FF90C0
:10064000EF90DF90CF90BF90AF9008958EEC92E046
:1006500008958EED92E008958E579B4FFC018081A6
:100660000895AF92BF92CF92DF92EF92FF920F93D5
:100670001F93CF93DF93EC017B018A81DB018C9385
:100680008B8111968C93EC81FD81DF010D90002010
:10069000E9F7CD0101976C01CE1ADF0AC601A0E08F
:1006A000B0E0FB0182839383A483B5836C817D8159
:1006B000A601C70106960E94F015EE81FF81DF01B9
:1006C0000D900020E9F7CD0101975C01AE1ABF0A39
:1006D000F701EC0DFD1D850120E030E00683178356
:1006E000208731879AE0C90ED11C6E817F81A501D8
:1006F000C7018C0D9D1D0E94F015CA0CDB1CE885FE
:10070000F985DF010D900020E9F7CD0101975C012B
:10071000AE1ABF0AF701EC0DFD1D850120E030E0A7
:10072000008311832283338394E0C90ED11C688532
:100730007985A501C7018C0D9D1D0E94F015AC0C9B
:10074000BD1C3A852B859C858D85F701EA0DFB1D27
:100750003083218392838383C5010496DF91CF91F7
:100760001F910F91FF90EF90DF90CF90BF90AF90CF
:1007700008950F931F93CF93DF93DC01FB01129633
:100780008C911297808313968D919C911497EC0114
:1007900009900020E9F72197C81BD90B8E0120E0B2
:1007A00030E0018312832383348313966D917C910F
:1007B0001497AE01CF0105960E94F015CE01059663
:1007C000DF91CF911F910F910895BF92CF92DF9249
:1007D000EF92FF920F931F93CF93DF93EC017B0176
:1007E0008A81DB018C9311961C92119712961C92B0
:1007F000129713961C92FB01379640E024E030E0FC
:100800005A81C90104964517E0F4AF81B88524E008
:10081000429FA00DB11D11246C9111965C9111970E
:1008200012963C91129713962C91DF0113976C93BB
:1008300011965C9311963C9320839C014F5F3496F4
:10084000DFCF4985F701E20FF31F40831182128247
:10085000138220E03985F701E80FF91F049623176A
:10086000B0F4AE85BF8534E0239FA00DB11D1124E7
:100870006C9111965C91119712964C911297139668
:100880003C9160835183428333832F5FE3CF288978
:100890002083118212821382B12C2889B21698F516
:1008A0004B2D50E0440F551FEB89FC89E40FF51FD9
:1008B0000190F081E02DDF010D900020E9F79D010E
:1008C000215031096901CE1ADF0AF701E80FF91F3B
:1008D000860120E030E000831183228333838C0182
:1008E0000C5F1F4FEB89FC89E40FF51F608171815C
:1008F000A601C701800F911F0E94F015C601800F4D
:10090000911FB394CACFDF91CF911F910F91FF90A8
:10091000EF90DF90CF90BF9008950F931F93CF93E8
:10092000DF93DC011296ED91FC911397EF01099092
:100930000020E9F72197CE1BDF0B8E0120E030E08D
:10094000FB01019311932193319312966D917C9148
:100950001397AE01CF010E94F015CE010496DF91EE
:10096000CF911F910F9108954F925F927F928F9236
:100970009F92AF92BF92CF92DF92EF92FF920F932E
:100980001F93CF93DF93EC018B01DB01FC908A81F5
:100990008F1550F4B4E0FB9EB00111248F8198852F
:1009A0000E940C1598878F83FA82F8013796F12CF4
:1009B00044E050E09E012D5F3F4F8A81BA016C5F99
:1009C0007F4F6B01F81660F5408150E060E070E009
:1009D000742F662755274427DF0113978C91482BE6
:1009E00011968C91582B11968C91682B4B835C83BC
:1009F0006D837E83A6016F81788584E0F89E600D0B
:100A0000711D1124D9018D909D90AD90BC90DB019A
:100A10008D929D92AD92BC921397F3943496CDCF64
:100A2000F801E40FF51FF08089858F1550F484E0FC
:100A3000F89EB00111248E859F850E940C159F871A
:100A40008E879601F98680E0FE013A969985D80155
:100A5000A20FB31FA9014C5F5F4F6A01891748F5C8
:100A600011969C91119712964C91129750E060E06C
:100A700070E0BA0155274427592B9C91492B1396B6
:100A80009C91792B4A875B876C877D879601AE8521
:100A9000BF8594E0899FA00DB11D11244081518133
:100AA000628173814D935D936D937C9313978F5FF8
:100AB000CDCFFC9088898F1550F46F2D70E0660FB4
:100AC000771F8B899C890E940C159C8B8B8BC60190
:100AD000F88A712C2E0151E1450E511C288972169D
:100AE00008F044C0F801E80FF91FC080D180E2800F
:100AF000F3800496F801E80FF91FAC01662757FD53
:100B00006095762F4C0D5D1D6E1D7F1D9F01201B76
:100B1000310B4901A12CB12C84169506A606B70607
:100B200038F4B1909F0122503109D901BC92EECF27
:100B3000C80ED91EF801EC0DFD1D319710829C01E5
:100B400021503109200F311F3A8B298BC6013B8977
:100B50002C89E32FF22FE70DF11DE70DF11DD201D6
:100B60002D913C91318320837394B8CFDF91CF9145
:100B70001F910F91FF90EF90DF90CF90BF90AF90BB
:100B80009F908F907F905F904F900895AF92BF920B
:100B9000CF92DF92EF92FF920F931F93CF93DF9349
:100BA00000D01F921F92CDB7DEB78C016B01643667
:100BB00071053CF0FC01EE57FB4F8081882309F45E
:100BC00079C0DA01ED91FC910190F081E02DB8013E
:100BD000655E7D4FCA0119957C015801BCEEAB1AC8
:100BE000BDEFBB0A2FEFF50120832EEF3196208356
:100BF0003196808331969083890F809531968083DA
:100C00003196C0823196D08285E090E020E030E0DD
:100C1000A701495F5F4F8417950750F4F801E80F6B
:100C2000F91FEC5EFD4F6081260F311D0196F3CF59
:100C3000F8E0EF0EF11C400F511FFA01EC5EFD4F82
:100C40002095208321E0E21622E0F206C8F4650137
:100C5000C6018A199B098E159F0584F4D801129646
:100C60008D919C911397F60161916F01DC01ED91DB
:100C7000FC910190F081E02D1995EACFC7011CC0CD
:100C80008BE794E09A83898383E08B838FEF92E0F4
:100C90009D838C83D801ED91FC910190F081E02D32
:100CA000AE014F5F5F4F67E070E0C80119958FEFAD
:100CB0009FEF02C080E090E00F900F900F900F9098
:100CC0000F90DF91CF911F910F91FF90EF90DF90E8
:100CD000CF90BF90AF90089560E089E00E94C3126A
:100CE00060E08AE00C94C312009711F00E94571044
:100CF00061E08DE00E948A1261E08DE00E94C312E3
:100D00006AEF70E080E090E00E94ED1060E08DE01E
:100D10000E94C3126AEF70E080E090E00E94ED1044
:100D2000EBCFEF92FF920F931F93CF93DF93CDB74B
:100D3000DEB7DA950FB6F894DEBF0FBECDBFC65F43
:100D4000DE4F08811981CA50D1409E01225F3E4F7B
:100D5000C45FDE4F48815981CC50D14060E071E0E2
:100D6000CE0101967C010E94F915D8011596FC92DE
:100D7000EE9214971C968D919C911D97DC01ED913C
:100D8000FC91A8014E5F5F4FD8011A966D917C913E
:100D90001B970190F081E02D1995D3950FB6F8942B
:100DA000DEBF0FBECDBFDF91CF911F910F91FF909E
:100DB000EF900895EF92FF920F931F93CF93DF93DD
:100DC000EC018091640990916509892B09F4FBC0BD
:100DD00080915F098111F7C0F89480916409909126
:100DE0006509009739F468E373E080916009909198
:100DF00061097ADFFC0100811181E280F3800E94A9
:100E00007310F0926509E0926409809162099091F3
:100E100063090197909363098093620981E080934D
:100E20005F097894F801EE0FFF1FEA5FFD4F8181A3
:100E30008F9380818F938AE693E09F938F93809125
:100E4000B7048F938091B6048F936BDF0F900F9050
:100E50000F900F900F900F900230110509F450C0C1
:100E600034F50115110569F10130110509F09FC034
:100E700089818F9388818F9382E993E09F938F93E9
:100E80008091B7048F938091B6048F934ADF688175
:100E9000798189E00E947411688179818AE00E94D9
:100EA000741160E08DE00E94C31261E047C003301E
:100EB000110509F455C00430110509F078C00CDFA4
:100EC00076C089818F9388818F9380E893E09F9388
:100ED0008F938091B7048F938091B6048F9321DF15
:100EE0006881798189E00E947411688179818AE042
:100EF0000E94741161E08DE00E94C31260E04EC058
:100F000089818F9388818F9385EA93E09F938F9354
:100F10008091B7048F938091B6048F9302DF68812C
:100F2000798189E00E947411688179818AE00E9448
:100F3000741161E08DE00E94C31260E08CE00E94B9
:100F4000C31261E08BE00E94C31260E088E00E945F
:100F5000C3120F900F900F900F900F900F9027C01B
:100F600089818F9388818F9384EB93E09F938F93F4
:100F70008091B7048F938091B6048F93D2DE6881FD
:100F8000798189E00E947411688179818AE00E94E8
:100F9000741160E08DE00E94C31261E08CE00E9459
:100FA000C31260E08BE00E94C31261E0CFCF60E427
:100FB00072E48FE090E0DF91CF911F910F91FF904D
:100FC000EF900C943213DF91CF911F910F91FF900E
:100FD000EF9008951F920F920FB60F9211240BB647
:100FE0000F922F933F934F935F936F937F938F93C2
:100FF0009F93AF93BF93EF93FF936EDE10925F09C1
:101000000E942613FF91EF91BF91AF919F918F9115
:101010007F916F915F914F913F912F910F900BBEF8
:101020000F900FBE0F901F9018950F931F93CF93A3
:10103000DF93EC010C811D81012B51F08C819D818E
:10104000FC01028113810E9473101D830C83F4CF75
:101050001B821A821F821E8219821882DF91CF9111
:101060001F910F910895CF93DF93CDB7DEB72897E7
:101070000FB6F894DEBF0FBECDBFFC017383628351
:101080002FE730E03183208361E088E00E948A12FC
:1010900061E08BE00E948A1261E08CE00E948A127B
:1010A00061E08DE00E948A1261E089E00E948A126C
:1010B00061E08AE00E948A121C821B821E821D82CD
:1010C00018861F821A82198288E0FE013196A0E6F6
:1010D000B9E001900D928A95E1F7CE010196A5DF66
:1010E00060E070E089E00E94741160E070E08AE0E6
:1010F0000E94741160E08DE00E94C31260E08CE0F9
:101100000E94C31260E08BE00E94C31260E088E09E
:101110000E94C31260E472E48FE090E00E943213F8
:1011200028960FB6F894DEBF0FBECDBFDF91CF91EA
:101130000895EF92FF920F931F93CF93DF93EC01EB
:101140007B010E811F8184E090E0CCD79F838E834A
:10115000009729F464EC73E088819981C5DDFC0176
:1011600013821282F182E0822C813D81232B19F4BB
:101170009D838C8303C0F801938382838A819B8142
:1011800001969B838A83DF91CF911F910F91FF90EE
:10119000EF900895FC018FE994E09183808388E6C5
:1011A00099E09383828340E051EE60E070E04483F5
:1011B000558366837783DF01AE57BB4F1C921E9623
:1011C00087E894E011969C938E9312961C92129746
:1011D00018961C921E92179719961C9219971F9693
:1011E0001C921E921E9750961C92509754961C92D9
:1011F0001E92539780E090E0DF01A80FB91FAC5E0C
:10120000BB4F1D921C92029682339105A9F780E094
:1012100090E0DF01A80FB91FAA5BBB4F1D921C9283
:10122000029682339105A9F780E090E0DF01A80FD4
:10123000B91F54961C920196811522E09207B1F7CE
:1012400080E090E0DF01A80FB91FAC5EBD4F1C929B
:101250000196811522E09207A9F708950F931F9335
:10126000CF93DF93CDB7DEB72A970FB6F894DEBFE2
:101270000FBECDBF8C0183E694E09A8389831B82E5
:101280001C821D821E821F82188619861A86D8012A
:10129000ED91FC910190F081E02DAE014F5F5F4F29
:1012A0006AE070E0C801199569D7F8016087718715
:1012B000828793872A960FB6F894DEBF0FBECDBF04
:1012C000DF91CF911F910F9108954F925F926F928E
:1012D0007F928F929F92AF92BF92CF92DF92EF92C6
:1012E000FF920F931F93CF93DF93CDB7DEB72E9767
:1012F0000FB6F894DEBF0FBECDBF8C018FE694E031
:101300009A8389831C821B8284EF93E09E838D8362
:1013100098878F839A8789871B861C861D861E86E1
:10132000580182E3A80EB11C7801412C92E0592E9D
:10133000612C712C6701ACEECA1AABEFDA0AD60148
:10134000ED91FC913097B9F1848195819C838B83D9
:10135000808191819E838D8382819381DC01ED91D7
:10136000FC910480F581E02D199598878F83D60133
:10137000ED91FC9182819381DC01ED91FC910680DD
:10138000F781E02D19959A8789874B865C866D8653
:101390007E86F80180819181F601A081B181189645
:1013A0006D917C911997DC01ED91FC91AE014F5F3D
:1013B0005F4FC8011995B2E0EB0EF11CEA14FB0473
:1013C00009F0B8CF7801412C82E0582E612C712CA5
:1013D0006701EAEBCE1AEBEFDE0AF601A081B181DC
:1013E0001097E1F112968D919C9113979C838B83BA
:1013F00014968D919C9115979E838D83ED91FC9110
:1014000011970480F581E02DCD01199598878F8380
:10141000D6018D919C91DC01ED91FC910680F781C4
:10142000E02D19959A8789874B865C866D867E8626
:10143000D801ED91FC9180809180F60180819181AD
:10144000DC01ED91FC910280F381E02D1995AE0154
:101450004F5F5F4FBC01C801F4011995F2E0EF0E38
:10146000F11CEA14FB0409F0B3CFF801EE57FB4F6F
:1014700081E080832E960FB6F894DEBF0FBECDBFFD
:10148000DF91CF911F910F91FF90EF90DF90CF9060
:10149000BF90AF909F908F907F906F905F904F9094
:1014A00008958F929F92AF92BF92CF92DF92EF9268
:1014B000FF920F931F93CF93DF93CDB7DEB72A9799
:1014C0000FB6F894DEBF0FBECDBF8C015B0183E683
:1014D00094E09A8389831B821C821D821E821F8254
:1014E000188619861A864AD66B017C01F801808518
:1014F0009185A285B385C81AD90AEA0AFB0AB50103
:10150000CE0101960E94700128EE822E23E0922ED9
:10151000A12CB12CC701B601A50194010E948C1326
:1015200069017A019B01AC018B819C81AD81BE81F7
:101530008C0D9D1DAE1DBF1D8B839C83AD83BE8313
:1015400060E472E48FE090E00E946A13CF80D88458
:10155000E984FA84C60ED71EE81EF91ECF82D8860B
:10156000E986FA860BD6CB80DC80ED80FE80F1E048
:10157000CF1AD108E108F108A50194010E948C134B
:1015800049015A019B01AC01C818D908EA08FB08B7
:10159000F801C486D586E686F786CF80D884E984AC
:1015A000FA84F6E3DF1AF5E6EF0AF4ECFF0A60E4EA
:1015B00072E48FE090E00E946A13C61AD70AE80A24
:1015C000F90AF801C08AD18AE28AF38AB801605F19
:1015D0007F4FC8010C960E94F912D0D5F801E95747
:1015E000FB4F60837183828393832A960FB6F894AE
:1015F000DEBF0FBECDBFDF91CF911F910F91FF9046
:10160000EF90DF90CF90BF90AF909F908F90089514
:101610002F923F924F925F926F927F928F929F9202
:10162000AF92BF92CF92DF92EF92FF920F931F93F0
:10163000CF93DF93CDB7DEB760970FB6F894DEBFD8
:101640000FBECDBF4C019AD56B017C019401295787
:101650003B4F3E832D83F90180819181A281B3812B
:10166000A7019601281B390B4A0B5B0BDA01C90154
:10167000893F9A42A105B10510F035971082A40167
:1016800048585B4F588B4F87DA018D919C91892B7D
:1016900079F0F401E557FB4F80819181A281B381FC
:1016A0008C159D05AE05BF0518F4FA011182108254
:1016B0003401F0E86F1AFBEF7F0A940124583B4F86
:1016C0003A832983A4014E575B4F58874F832C5E82
:1016D0003F4F3C872B87435F5F4F5E874D87840179
:1016E00006581B4F1601270154E1250E311C411CE1
:1016F000511C540184E1A80EB11C940122583B4FA7
:101700003C832B83A40145575B4F5A874987D401FB
:1017100012968D919C911397DC01ED91FC910680BE
:10172000F781E02D19959C0197FD25C1F30180817A
:101730009181820F931F91838083AF85B8894D91EA
:101740005C9147305105E1F4EB81FC81808191810E
:10175000AC014F5F5F4F51834083F401E80FF91FE5
:10176000248BD8018D919C91119701978D939C9317
:10177000892B09F0BECF28E030E0EF85F88984C0DE
:101780004115510511F52F3F310569F481E090E0D5
:10179000AF85B8898D939C93E985FA852082318243
:1017A00042825382B4CFEAD46C197D098E099F0915
:1017B000663071058105910508F49BCFF401EE5761
:1017C000FB4F10828EEF9FEFFBC04130510591F42B
:1017D0002E3F310519F482E090E02EC0EF85F889A4
:1017E00011821082AF81B8858C91811182CFC401A2
:1017F00035DD8DCF4230510589F4F80131832083E6
:10180000AB81BC811D921C9283E090E0EF85F8894A
:1018100091838083D3012D933C9379CF433051053D
:1018200081F4322F2227F80180819181820F931F4A
:101830009183808384E090E0AF85B8898D939C93F9
:1018400066CF4430510591F460E071E052D78F3F8C
:10185000910539F485E090E0EF85F88991838083E4
:1018600056CFAF85B8891D921C9251CF4530510596
:1018700071F4E981FA813183208386E090E0AF85BD
:10188000B8898D939C93F3013183208340CF4630F8
:101890005105D1F4322F2227A981BA818D919C91D3
:1018A0001197820F931F8D939C9327E030E0EF8573
:1018B000F88931832083D8018D919C91892B09F07F
:1018C00018CF28E030E0E0CF4830510509F011CFC3
:1018D000AF85B8891D921C9260E071E00AD78F3FF6
:1018E000910509F006CFA981BA81ED91FC9130975D
:1018F000A1F4C401B3DCC401E8DCF401ED57FB4FF3
:10190000C082D182E282F382ED81FE81C082D182E7
:10191000E282F3828FEF9FEF53C0EA30F10521F4AA
:10192000B501C401BEDDF3CEE630F10549F4B501E1
:101930008B859C8519D881E0AD85BE858C93E7CEDB
:10194000EB30F10521F4EF81F8851082E0CEE1540F
:10195000FE4FEE0FFF1FE80DF91D8081918100976A
:1019600009F4C7CEDC01ED91FC910190F081E02DEE
:10197000B5011995CCCEF401EE57FB4F8081882339
:10198000E9F084010D571B4FF80180819181A281FC
:10199000B381A7019601281B390B4A0B5B0BDA01B7
:1019A000C901853C9940A105B10540F0C40156DC50
:1019B000D801CD92DD92ED92FC92139780E090E0F9
:1019C00060960FB6F894DEBF0FBECDBFDF91CF910A
:1019D0001F910F91FF90EF90DF90CF90BF90AF904D
:1019E0009F908F907F906F905F904F903F902F903F
:1019F00008950F931F93CF93DF934091BE045091AE
:101A0000BF046091C0047091C10426E08091BC04C1
:101A10009091BD04EAD110923309109232091092CC
:101A20003509109234091092390910923809109230
:101A300037091092360968EE73E080E090E0CDD36C
:101A400080E190E04FD3FC018AEB94E091838083A6
:101A500083E994E09383828384EF93E09583848386
:101A600085EF93E097838683CF01029691878087E5
:101A700017861686AEECB8E080E090E02D913D919F
:101A8000232B99F4DC01AA0FBB1FA253B74F9F0170
:101A90002A5F3F4F2D933C9383589F4F93878287B4
:101AA0008AEB94E09587848704C00196893191057B
:101AB00029F7F093B704E093B60484E090E012D3E2
:101AC000EC016AEB74E0CFDAD093B904C093B804A8
:101AD000F89461E070E080E699E02BDB7894F8946C
:101AE00060E070E080E699E024DB78948AEB94E093
:101AF0008FDD68EE73E080E090E06FD38AEB94E0D6
:101B000087DD68EE73E080E090E067D3C0E0D0E06E
:101B10000EEF13E0DF93CF931F930F938091B704E1
:101B20008F938091B6048F93FCD88AEB94E070DD9C
:101B300068EC70E080E090E050D321960F900F9019
:101B40000F900F900F900F90C430D10519F7DF91CF
:101B5000CF911F910F910895E0E6F9E083818F9373
:101B600082818F938AE094E09F938F938091B70452
:101B70008F938091B6048F93D4D88091B8049091BC
:101B8000B90418D98AEB94E043DD0F900F900F90C1
:101B90000F900F900F9064EF71E080E090E01DC314
:101BA00010926309109262091092650910926409FB
:101BB00010926709109266091092610910926009EB
:101BC0008AEB94E0E7CA80E699E02FCAFC01818D98
:101BD000228D90E0805C9F4F821B91098F73992723
:101BE0000895FC01918D828D981731F0828DE80F58
:101BF000F11D858D90E008958FEF9FEF0895FC0112
:101C0000918D828D981761F0828DDF01A80FB11D33
:101C10005D968C91928D9F5F9F73928F90E0089557
:101C20008FEF9FEF089584EB9FE0892B39F080E0E0
:101C300090E0892B19F098D1811125C080E090E0C7
:101C4000892B41F080E090E0892B21F00E94000078
:101C500081111CC080E090E0892B41F080E090E091
:101C6000892B21F00E940000811113C080E090E0D8
:101C7000892BA1F080E090E0892B81F00E94000088
:101C800081110AC008950E940000D8CF0E94000070
:101C9000E1CF0E940000EACF0C9400000895FC01FF
:101CA000848DDF01A80FB11DA35ABF4F2C91848DE5
:101CB00090E001968F739927848FA689B7892C931A
:101CC000A089B1898C9180648C93938D848D9813B5
:101CD00006C00288F389E02D80818F7D808308957E
:101CE000CF93DF93EC01888D8823C1F0EA89FB89CB
:101CF000808185FD05C0A889B9898C9186FD0EC0BB
:101D00000FB607FCF5CF808185FFF2CFA889B9898E
:101D10008C9185FFEDCFCE01C2DFE8CFDF91CF916F
:101D20000895CF92DF92FF920F931F93CF93DF938B
:101D30001F92CDB7DEB76C01DC015B969C915B977F
:101D40005C968C915C97981307C05096ED91FC912E
:101D50005197808185FD31C0F601038D10E00F5F42
:101D60001F4F0F731127F02EF601848DF81210C04B
:101D70000FB607FCF9CFD6015096ED91FC91519723
:101D8000808185FFF1CFC601698389DF6981ECCF4E
:101D9000838DE80FF11DE35AFF4F6083D6015B96F8
:101DA0000C935B975296ED91FC91539780818062E2
:101DB000808381E058968C930DC0D6015696ED91A4
:101DC000FC91579760835096ED91FC9151978081DB
:101DD0008064808381E090E00F90DF91CF911F912C
:101DE0000F91FF90DF90CF900895BF92CF92DF9236
:101DF000EF92FF92CF93DF93EC016A017B01B22E49
:101E0000E889F98982E08083411581EE58076105F0
:101E1000710599F060E079E08DE390E0A70196010B
:101E20007BD4215031094109510956954795379581
:101E30002795211580E1380790F0E889F98910820B
:101E400060E874E88EE190E0A701960165D4215026
:101E50003109410951095695479537952795EC85E4
:101E6000FD853083EE85FF852083188EEC89FD8902
:101E7000B082EA89FB89808180618083EA89FB895D
:101E8000808188608083EA89FB8980818068808383
:101E9000EA89FB8980818F7D8083DF91CF91FF90DC
:101EA000EF90DF90CF90BF9008951F920F920FB6E2
:101EB0000F9211240BB60F922F938F939F93EF9352
:101EC000FF93E0917809F09179098081E0917E0992
:101ED000F0917F0982FD12C09081809181098F5F0E
:101EE0008F7320918209821751F0E0918109F0E00F
:101EF000E859F64F958F8093810901C08081FF9149
:101F0000EF919F918F912F910F900BBE0F900FBE6D
:101F10000F901F9018951F920F920FB60F921124D9
:101F20000BB60F922F933F934F935F936F937F93D3
:101F30008F939F93AF93BF93EF93FF9388E699E0BE
:101F4000AEDEFF91EF91BF91AF919F918F917F9105
:101F50006F915F914F913F912F910F900BBE0F901A
:101F60000FBE0F901F90189588E699E02FDE21E0B4
:101F7000892B09F420E0822F089510926B091092AA
:101F80006A0988EE93E0A0E0B0E080936C0990933A
:101F90006D09A0936E09B0936F0989EA94E090935C
:101FA00069098093680985EC90E0909375098093A6
:101FB000740984EC90E0909377098093760980EC23
:101FC00090E0909379098093780981EC90E0909368
:101FD0007B0980937A0982EC90E090937D0980934D
:101FE0007C0986EC90E090937F0980937E091092A3
:101FF0008109109282091092830910928409089530
:10200000CF92DF92EF92FF920F931F93CF93DF93C4
:102010006C017A01EB01E60EF71E00E010E0CE1530
:10202000DF0561F06991D601ED91FC910190F0819D
:10203000E02DC6011995080F191FF1CFC801DF91D6
:10204000CF911F910F91FF90EF90DF90CF90089567
:102050006115710581F0DB010D900020E9F7AD01FC
:1020600041505109461B570BDC01ED91FC91028058
:10207000F381E02D199480E090E00895DC01ED916A
:10208000FC910190F081E02D19940F931F93CF9351
:10209000DF93EC016DE0F2DF8C016AE0CE01EEDF50
:1020A000800F911FDF91CF911F910F9108950F9392
:1020B0001F93CF93DF93EC01CBDF8C01CE01E5DFE3
:1020C000800F911FDF91CF911F910F910895089577
:1020D000A9D0FDDF8EDCC3E1DEE03EDD2097E9F331
:1020E000A2DDFBCF72C309C41F920F920FB60F92ED
:1020F00011242F933F938F939F93AF93BF9380911E
:10210000060A9091070AA091080AB091090A309135
:10211000050A23E0230F2D3720F40196A11DB11DE0
:1021200005C026E8230F0296A11DB11D2093050AC4
:102130008093060A9093070AA093080AB093090AAD
:1021400080910A0A90910B0AA0910C0AB0910D0A95
:102150000196A11DB11D80930A0A90930B0AA093CA
:102160000C0AB0930D0ABF91AF919F918F913F914F
:102170002F910F900FBE0F901F9018952FB7F894C6
:102180006091060A7091070A8091080A9091090AE5
:102190002FBF08953FB7F89480910A0A90910B0AD7
:1021A000A0910C0AB0910D0A26B5A89B05C02F3F3F
:1021B00019F00196A11DB11D3FBF6627782F892F09
:1021C0009A2F620F711D811D911D42E0660F771FCE
:1021D000881F991F4A95D1F70895CF92DF92EF9209
:1021E000FF92CF93DF936B017C01D4DFEB01C1142D
:1021F000D104E104F10479F0FBD1CCDF6C1B7D0B41
:10220000683E7340A0F381E0C81AD108E108F108E4
:10221000C851DC4FECCFDF91CF91FF90EF90DF9072
:10222000CF900895789484B5826084BD84B5816030
:1022300084BD85B5826085BD85B5816085BDEEE6CE
:10224000F0E0808181608083E1E8F0E010828081AD
:1022500082608083808181608083E0E8F0E080811B
:1022600081608083E1EBF0E0808184608083E0EB3B
:10227000F0E0808181608083E1E9F0E0808182602C
:102280008083808181608083E0E9F0E080818160EB
:102290008083E1EAF0E080818260808380818160D8
:1022A0008083E0EAF0E0808181608083E1E2F1E018
:1022B000808182608083808181608083E0E2F1E0C0
:1022C000808181608083EAE7F0E0808184608083A0
:1022D000808182608083808181608083808180684A
:1022E00080831092C10008951F93CF93DF93182F1E
:1022F000EB0161E00FD1209711F460E004C0CF3F03
:10230000D10531F461E0812FDF91CF911F913BC165
:10231000E12FF0E0E45DFE4F449150E0FA01319787
:10232000E231F10508F09AC0EE58FF4F17C284B5AC
:10233000806884BDC7BD97C084B5806284BDC8BDB8
:1023400092C080918000806880938000D093890043
:10235000C093880088C08091800080628093800054
:10236000D0938B00C0938A007EC0809180008860EB
:1023700080938000D0938D00C0938C0074C08091B6
:10238000B00080688093B000C093B3006CC08091AF
:10239000B00080628093B000C093B40064C08091AC
:1023A0009000806880939000D0939900C09398002B
:1023B0005AC080919000806280939000D0939B00DF
:1023C000C0939A0050C080919000886080939000E4
:1023D000D0939D00C0939C0046C08091A00080686F
:1023E0008093A0008091A0008F7B8093A000D09369
:1023F000A900C093A80037C08091A000806280939C
:10240000A000D093AB00C093AA002DC08091A00083
:1024100088608093A000D093AD00C093AC0023C02F
:1024200080912001806880932001D0932901C0937E
:10243000280119C080912001806280932001D093EF
:102440002B01C0932A010FC08091200188608093E6
:102450002001D0932D01C0932C0105C0C038D105B7
:102460000CF050CF4ACFDF91CF911F91089590E0AB
:10247000FC013197E231F10508F04BC0EC57FF4FFA
:102480006DC1809180008F7703C0809180008F7D27
:1024900080938000089580918000877FF9CF84B574
:1024A0008F7702C084B58F7D84BD08958091B00080
:1024B0008F7703C08091B0008F7D8093B000089526
:1024C000809190008F7707C0809190008F7D03C02E
:1024D00080919000877F8093900008958091A00064
:1024E0008F7707C08091A0008F7D03C08091A000EE
:1024F000877F8093A0000895809120018F7707C087
:10250000809120018F7D03C080912001877F80937F
:1025100020010895CF93DF9390E0FC01EE58FE4F29
:102520002491FC01E854FE4F8491882349F190E006
:10253000880F991FFC01E85EFD4FA591B491825070
:102540009E4FFC01C591D4919FB7611108C0F894CA
:102550008C91209582238C93888182230AC06230DB
:1025600051F4F8948C91322F309583238C93888189
:10257000822B888304C0F8948C91822B8C939FBF0C
:10258000DF91CF9108950F931F93CF93DF931F9205
:10259000CDB7DEB7282F30E0F901E45DFE4F84911E
:1025A000F901EE58FE4F1491F901E854FE4F0491E1
:1025B0000023C1F0882319F0698359DF6981E02F76
:1025C000F0E0EE0FFF1FE250FE4FA591B4919FB7D0
:1025D000F8948C91611103C01095812301C0812B67
:1025E0008C939FBF0F90DF91CF911F910F91089512
:1025F0000895CF92DF92EF92FF920F931F93CF93A4
:10260000DF938C01EB01688179818A819B8120E0D5
:102610003AEC4AE95BE380D0F801C080D180E280E7
:10262000F380C20ED31EE41EF51EC082D182E28268
:10263000F382688379838A839B83DF91CF911F9193
:102640000F91FF90EF90DF90CF9008952FB7F894FF
:1026500080910E0A90910F0A909325018093240196
:102660002FBF089510922101109220011092220193
:10267000613A27EF720723E08207910568F423E0AF
:102680002093100ADC01CB0132E0B695A79597950F
:1026900087953A95D1F70CC024E02093100ADC010D
:1026A000CB0124E0B695A795979587952A95D1F704
:1026B00066277727681B790B70930F0A60930E0AC1
:1026C000C5DF1ABA81E0809373008091100A80936D
:1026D00021010895DB018F939F9346D0BF91AF9165
:1026E000A29F800D911DA39F900DB29F900D11246C
:1026F000089597FB072E16F4009406D077FD08D0B6
:1027000041D007FC05D03EF4909581959F4F0895E8
:10271000709561957F4F0895A1E21A2EAA1BBB1BED
:10272000FD010DC0AA1FBB1FEE1FFF1FA217B3079D
:10273000E407F50720F0A21BB30BE40BF50B661FB3
:10274000771F881F991F1A9469F760957095809577
:1027500090959B01AC01BD01CF010895EE0FFF1FC5
:102760000590F491E02D199421D0A59F900DB49F70
:10277000900DA49F800D911D112408950790F6914E
:10278000E02D1994AA1BBB1B51E107C0AA1FBB1F58
:10279000A617B70710F0A61BB70B881F991F5A95ED
:1027A000A9F780959095BC01CD010895A29FB00135
:1027B000B39FC001A39F700D811D1124911DB29F75
:1027C000700D811D1124911D0895CF93DF938230E8
:1027D000910510F482E090E0E091130AF091140A60
:1027E00020E030E0A0E0B0E0309739F14081518145
:1027F00048175907B8F04817590771F48281938137
:10280000109729F013969C938E9312972CC0909357
:10281000140A8093130A27C02115310531F042179D
:10282000530718F0A901DB0101C0EF019A01BD01B6
:10283000DF010280F381E02DD7CF21153105F9F0BA
:10284000281B390B2430310580F48A819B81611566
:10285000710521F0FB019383828304C09093140AD5
:102860008093130AFE01329644C0FE01E20FF31F6B
:102870008193919322503109398328833AC0209162
:10288000110A3091120A232B41F420910202309157
:1028900003023093120A2093110A20910002309112
:1028A00001022115310541F42DB73EB740910402D4
:1028B00050910502241B350BE091110AF091120A88
:1028C000E217F307A0F42E1B3F0B2817390778F007
:1028D000AC014E5F5F4F2417350748F04E0F5F1F66
:1028E0005093120A4093110A8193919302C0E0E041
:1028F000F0E0CF01DF91CF910895CF93DF93009760
:1029000009F487C0FC01329713821282C091130A26
:10291000D091140A209781F420813181280F391F2A
:102920008091110A9091120A8217930779F5F0931A
:10293000120AE093110A6DC0DE0120E030E0AE170C
:10294000BF0750F412964D915C9113979D0141156C
:10295000510509F1DA01F3CFB383A283408151819C
:10296000840F951F8A179B0771F48D919C91119785
:10297000840F951F02969183808312968D919C916E
:102980001397938382832115310529F4F093140A58
:10299000E093130A3EC0D9011396FC93EE9312976D
:1029A0004D915D91A40FB51FEA17FB0779F4808163
:1029B0009181840F951F0296D90111969C938E9355
:1029C0008281938113969C938E931297E0E0F0E0BE
:1029D0008A819B81009719F0FE01EC01F9CFCE01AD
:1029E000029628813981820F931F2091110A30911C
:1029F000120A2817390769F4309729F41092140A3B
:102A00001092130A02C013821282D093120AC0934A
:102A1000110ADF91CF9108956F927F928F929F92CA
:102A2000AF92BF92CF92DF92EF92FF920F931F93DC
:102A3000CF93DF93EC01CB01209779F4DF91CF9115
:102A40001F910F91FF90EF90DF90CF90BF90AF90CC
:102A50009F908F907F906F90B8CEFE01E60FF71F8A
:102A60009E0122503109E217F30708F4A8C0D901EA
:102A70000D911C91119706171707B0F0053011053D
:102A800008F49BC0A801445051094617570708F4A1
:102A900094C002501109061B170B019311936D93FB
:102AA0007C93CF012ADF89C05B01A01AB10A4E01D5
:102AB000800E911EA091130AB091140A612C712C02
:102AC00060E070E0109709F449C0A815B905C9F590
:102AD000ED90FC901197670142E0C40ED11CCA141E
:102AE000DB0478F147018A189B08640142E0C40EB8
:102AF000D11C1296BC9012971396AC91B5E0CB16F0
:102B0000D10440F0B282A38391828082D9018D9357
:102B10009C9309C00E5F1F4F0E0D1F1DF9011183FD
:102B20000083EB2DFA2F6115710531F0DB0113964F
:102B3000FC93EE93129741C0F093140AE093130AAA
:102B40003CC06D917C9111976616770608F43B01A5
:102B5000BD0112960D90BC91A02DB4CF6091110AC9
:102B60007091120A68157905E9F468167906D0F4AF
:102B700040910002509101024115510541F44DB7B9
:102B80005EB76091040270910502461B570BE41773
:102B9000F507A8F4F093120AE093110AF901918362
:102BA00080830BC012DE7C01009749F0A801BE01B2
:102BB00017D0CE01A2DEC70104C0CE0102C080E062
:102BC00090E0DF91CF911F910F91FF90EF90DF90F8
:102BD000CF90BF90AF909F908F907F906F9008950F
:102BE000FB01DC0102C001900D9241505040D8F72A
:102BF00008950F931F93CF93DF93CDB7DEB72E9732
:102C00000FB6F894DEBF0FBECDBF8C01CA0146E0FF
:102C10004C831A83098377FF02C060E070E861503B
:102C200071097E836D83A901BC01CE01019619D083
:102C30004D815E8157FD0AC02F81388542175307A9
:102C40000CF49A01F801E20FF31F10822E960FB6D2
:102C5000F894DEBF0FBECDBFDF91CF911F910F91D2
:102C600008952F923F924F925F926F927F928F9230
:102C70009F92AF92BF92CF92DF92EF92FF920F930B
:102C80001F93CF93DF93CDB7DEB72C970FB6F89491
:102C9000DEBF0FBECDBF7C016B018A01FC01178234
:102CA0001682838181FFB0C1CE0101964C01F701EC
:102CB0009381F60193FD859193FF81916F018823A4
:102CC00009F49EC1853239F493FD859193FF81917A
:102CD0006F01853221F4B70190E0C7D1E8CF512CC4
:102CE000312C20E02032A0F48B3269F030F48032B5
:102CF00059F0833269F420612CC08D3239F0803371
:102D000039F4216026C02260246023C0286021C0DD
:102D100027FD27C030ED380F3A3078F426FF06C083
:102D2000FAE05F9E300D1124532E13C08AE0389EC6
:102D3000300D1124332E20620CC08E3221F426FD7A
:102D40005FC1206406C08C3611F4206802C088364A
:102D500041F4F60193FD859193FF81916F018111FB
:102D6000C1CF982F9F7D9554933028F40C5F1F4F4F
:102D7000FFE3F9830DC0833631F0833771F083357B
:102D800009F057C021C0F801808189830E5F1F4F71
:102D900044244394512C540114C03801F2E06F0EC6
:102DA000711CF801A080B18026FF03C0652D70E082
:102DB00002C06FEF7FEFC5012C874CD12C0183013E
:102DC0002C852F77222E16C03801F2E06F0E711C71
:102DD000F801A080B18026FF03C0652D70E002C01D
:102DE0006FEF7FEFC5012C872AD12C012C8520683D
:102DF000222E830123FC19C0832D90E0481659062A
:102E0000A0F4B70180E290E030D13A94F5CFF5011B
:102E100027FC859127FE81915F01B70190E025D1C4
:102E200031103A94F1E04F1A51084114510479F7E6
:102E3000DEC0843611F0893631F5F80127FF07C06E
:102E400060817181828193810C5F1F4F08C0608116
:102E50007181882777FD8095982F0E5F1F4F2F7601
:102E6000B22E97FF09C090958095709561957F4F20
:102E70008F4F9F4F2068B22E2AE030E0A40127D167
:102E8000A82EA81843C0853729F42F7EB22E2AE039
:102E900030E025C0F22FF97FBF2E8F36C1F018F435
:102EA000883579F0ADC0803719F0883721F0A8C097
:102EB0002F2F2061B22EB4FE0DC08B2D8460B82E52
:102EC00009C024FF0AC09F2F9660B92E06C028E0D3
:102ED00030E005C020E130E002C020E132E0F8013E
:102EE000B7FE07C060817181828193810C5F1F4FA3
:102EF00006C06081718180E090E00E5F1F4FA401E9
:102F0000E6D0A82EA818FB2DFF77BF2EB6FE0BC06B
:102F10002B2D2E7FA51450F4B4FE0AC0B2FC08C0BD
:102F20002B2D2E7E05C07A2C2B2D03C07A2C01C0B0
:102F3000752C24FF0DC0FE01EA0DF11D8081803348
:102F400011F4297E09C022FF06C07394739404C053
:102F5000822F867809F0739423FD12C020FF06C0EB
:102F60005A2C731418F4530C5718732C731460F400
:102F7000B70180E290E02C8778D073942C85F6CF4F
:102F8000731410F4371801C0312C24FF11C0B7019D
:102F900080E390E02C8769D02C8522FF16C021FFAA
:102FA00003C088E590E002C088E790E0B7010CC05C
:102FB000822F867851F021FD02C080E201C08BE2B1
:102FC00027FD8DE2B70190E050D0A51430F4B70191
:102FD00080E390E04AD05A94F8CFAA94F401EA0D25
:102FE000F11D8081B70190E040D0A110F6CF3320D1
:102FF00009F45DCEB70180E290E037D03A94F7CF84
:10300000F7018681978102C08FEF9FEF2C960FB654
:10301000F894DEBF0FBECDBFDF91CF911F910F910E
:10302000FF90EF90DF90CF90BF90AF909F908F90E8
:103030007F906F905F904F903F902F900895FC018C
:103040000590615070400110D8F7809590958E0FD3
:103050009F1F0895FC016150704001900110D8F746
:10306000809590958E0F9F1F08950F931F93CF9378
:10307000DF93182F092FEB018B8181FD03C08FEFA8
:103080009FEF20C082FF10C04E815F812C813D8167
:10309000421753077CF4E881F9819F012F5F3F4F6E
:1030A00039832883108306C0E885F985812F199517
:1030B000892B29F72E813F812F5F3F4F3F832E833E
:1030C000812F902FDF91CF911F910F910895FA01D9
:1030D000AA27283051F1203181F1E8946F936E7F57
:1030E0006E5F7F4F8F4F9F4FAF4FB1E03ED0B4E048
:1030F0003CD0670F781F891F9A1FA11D680F791F89
:103100008A1F911DA11D6A0F711D811D911DA11D99
:1031100020D009F468943F912AE0269F11243019A9
:10312000305D3193DEF6CF010895462F4770405D44
:103130004193B3E00FD0C9F7F6CF462F4F70405DF3
:103140004A3318F0495D31FD4052419302D0A9F74E
:10315000EACFB4E0A6959795879577956795BA9548
:10316000C9F700976105710508959B01AC010A2E0E
:1031700006945795479537952795BA95C9F7620FE5
:10318000731F841F951FA01D089512E0C6E3D2E0AF
:1031900000E005C022970109FE010BBFEFDAC8333A
:0C31A000D10780E00807B1F7F894FFCFDA
:1031AC000000150A200018042004290433043E04EE
:1031BC007374645F6D7367732F54696D650063641A
:1031CC0037313636633734633535326333313166F4
:1031DC006263633266653561376263323839007217
:1031EC006F7373657269616C5F6D7367732F546F66
:1031FC00706963496E666F003061643531663838CA
:10320C0066633434383932663863313036383430AA
:10321C00373736343630303500726F7373657269F8
:10322C00616C5F6D7367732F4C6F67003131616236
:10323C006437333163323539333332363163643684
:10324C0031383362643132643632393500396630A4
:10325C0065393862646136353938313938366464E9
:10326C0066353361666137613430653439007374A7
:10327C00645F6D7367732F537472696E67003939AD
:10328C003263653861313638376365633863386269
:10329C006438383365633733636134316431004DDE
:1032AC006573736167652066726F6D2064657669FE
:1032BC0063652064726F707065643A206D6573731A
:1032CC00616765206C6172676572207468616E203D
:1032DC006275666665722E0051554555453A2063F8
:1032EC00616E277420706F70206974656D20667232
:1032FC006F6D2071756575653A2071756575652002
:10330C00697320656D7074792E004D6F746F722027
:10331C0072756E20636F6D6D616E643A202573005B
:10332C00464F52574152442073706565643A2025CC
:10333C0064004241434B57415244207370656564AD
:10334C003A202564004C4546542073706565643AF8
:10335C002025640052494748542073706565643ACF
:10336C002025640051554555453A20696E737566A4
:10337C0066696369656E74206D656D6F7279207412
:10338C006F206372656174652061206E6577206EB5
:10339C006F64652E006D6F746F724C6F67005354C1
:1033AC004152542055502025640051756575652097
:1033BC006C656E3A20256400464F525741524400CA
:1033CC004241434B57415244004C4546545F54557F
:1033DC00524E0052494748545F5455524E00535474
:1033EC004F5000726F7373657269616C5F6D7367B8
:1033FC00732F52657175657374506172616D000045
:10340C000000004E017001B601B90100000000314E
:10341C0003BC019402970200000000B9039A02DE7B
:10342C0002E10200000000E503B404E402E702003C
:10343C000000008D04EA022603290300000000C6E8
:10344C0005080B2C0300000000910E0010E60DFF88
:06345C000DF10D700E00E1
:00000001FF
